{
  "contractName": "Iov",
  "abi": [
    {
      "constant": true,
      "inputs": [
        {
          "name": "",
          "type": "uint256"
        }
      ],
      "name": "vehicleArray",
      "outputs": [
        {
          "name": "id",
          "type": "uint256"
        },
        {
          "name": "name",
          "type": "string"
        },
        {
          "name": "trustIndex",
          "type": "uint256"
        },
        {
          "name": "videoTime",
          "type": "uint256"
        }
      ],
      "payable": false,
      "stateMutability": "view",
      "type": "function",
      "signature": "0x20b93465"
    },
    {
      "constant": true,
      "inputs": [],
      "name": "vehicleCount",
      "outputs": [
        {
          "name": "",
          "type": "uint256"
        }
      ],
      "payable": false,
      "stateMutability": "view",
      "type": "function",
      "signature": "0x99704937"
    },
    {
      "inputs": [],
      "payable": false,
      "stateMutability": "nonpayable",
      "type": "constructor",
      "signature": "constructor"
    },
    {
      "constant": false,
      "inputs": [
        {
          "name": "_name",
          "type": "string"
        }
      ],
      "name": "addVehicle",
      "outputs": [],
      "payable": false,
      "stateMutability": "nonpayable",
      "type": "function",
      "signature": "0xdab98e64"
    },
    {
      "constant": false,
      "inputs": [
        {
          "name": "_id",
          "type": "uint256"
        }
      ],
      "name": "canShareVideo",
      "outputs": [
        {
          "name": "",
          "type": "bool"
        }
      ],
      "payable": false,
      "stateMutability": "nonpayable",
      "type": "function",
      "signature": "0x895305e7"
    },
    {
      "constant": false,
      "inputs": [
        {
          "name": "_id",
          "type": "uint256"
        }
      ],
      "name": "canReceiveVideo",
      "outputs": [
        {
          "name": "",
          "type": "bool"
        }
      ],
      "payable": false,
      "stateMutability": "nonpayable",
      "type": "function",
      "signature": "0xcd4daf37"
    },
    {
      "constant": false,
      "inputs": [
        {
          "name": "_id",
          "type": "uint256"
        }
      ],
      "name": "incrementVideoTime",
      "outputs": [],
      "payable": false,
      "stateMutability": "nonpayable",
      "type": "function",
      "signature": "0xe13f499b"
    },
    {
      "constant": false,
      "inputs": [
        {
          "name": "_id",
          "type": "uint256"
        }
      ],
      "name": "decrementVideoTime",
      "outputs": [],
      "payable": false,
      "stateMutability": "nonpayable",
      "type": "function",
      "signature": "0x0c46f18d"
    },
    {
      "constant": false,
      "inputs": [
        {
          "name": "_id",
          "type": "uint256"
        },
        {
          "name": "_bool",
          "type": "bool"
        }
      ],
      "name": "feedBack",
      "outputs": [],
      "payable": false,
      "stateMutability": "nonpayable",
      "type": "function",
      "signature": "0x28cc29a1"
    }
  ],
  "bytecode": "0x608060405234801561001057600080fd5b5061005e6040805190810160405280600981526020017f56656869636c65203100000000000000000000000000000000000000000000008152506100b0640100000000026401000000009004565b6100ab6040805190810160405280600981526020017f56656869636c65203200000000000000000000000000000000000000000000008152506100b0640100000000026401000000009004565b610234565b60016000815480929190600101919050555060806040519081016040528060015481526020018281526020016100f6600154610155640100000000026401000000009004565b8152602001600a815250600080600154815260200190815260200160002060008201518160000155602082015181600101908051906020019061013a92919061018f565b50604082015181600201556060820151816003015590505050565b6000600a60008084815260200190815260200160002060020181905550600080838152602001908152602001600020600201549050919050565b828054600181600116156101000203166002900490600052602060002090601f016020900481019282601f106101d057805160ff19168380011785556101fe565b828001600101855582156101fe579182015b828111156101fd5782518255916020019190600101906101e2565b5b50905061020b919061020f565b5090565b61023191905b8082111561022d576000816000905550600101610215565b5090565b90565b610754806102436000396000f3fe60806040526004361061008e576000357c0100000000000000000000000000000000000000000000000000000000900463ffffffff1680630c46f18d1461009357806320b93465146100ce57806328cc29a114610197578063895305e7146101de5780639970493714610231578063cd4daf371461025c578063dab98e64146102af578063e13f499b14610377575b600080fd5b34801561009f57600080fd5b506100cc600480360360208110156100b657600080fd5b81019080803590602001909291905050506103b2565b005b3480156100da57600080fd5b50610107600480360360208110156100f157600080fd5b81019080803590602001909291905050506103d9565b6040518085815260200180602001848152602001838152602001828103825285818151815260200191508051906020019080838360005b8381101561015957808201518184015260208101905061013e565b50505050905090810190601f1680156101865780820380516001836020036101000a031916815260200191505b509550505050505060405180910390f35b3480156101a357600080fd5b506101dc600480360360408110156101ba57600080fd5b81019080803590602001909291908035151590602001909291905050506104a1565b005b3480156101ea57600080fd5b506102176004803603602081101561020157600080fd5b81019080803590602001909291905050506104d5565b604051808215151515815260200191505060405180910390f35b34801561023d57600080fd5b50610246610505565b6040518082815260200191505060405180910390f35b34801561026857600080fd5b506102956004803603602081101561027f57600080fd5b810190808035906020019092919050505061050b565b604051808215151515815260200191505060405180910390f35b3480156102bb57600080fd5b50610375600480360360208110156102d257600080fd5b81019080803590602001906401000000008111156102ef57600080fd5b82018360208201111561030157600080fd5b8035906020019184600183028401116401000000008311171561032357600080fd5b91908080601f016020809104026020016040519081016040528093929190818152602001838380828437600081840152601f19601f82011690508083019250505050505050919291929050505061053b565b005b34801561038357600080fd5b506103b06004803603602081101561039a57600080fd5b81019080803590602001909291905050506105d1565b005b600a6000808381526020019081526020016000206003016000828254039250508190555050565b6000602052806000526040600020600091509050806000015490806001018054600181600116156101000203166002900480601f01602080910402602001604051908101604052809291908181526020018280546001816001161561010002031660029004801561048b5780601f106104605761010080835404028352916020019161048b565b820191906000526020600020905b81548152906001019060200180831161046e57829003601f168201915b5050505050908060020154908060030154905084565b80156104be576104b0826105f8565b6104b9826105d1565b6104d1565b6104c782610620565b6104d0826103b2565b5b5050565b6000600560008084815260200190815260200160002060020154101515156104fc57600080fd5b60019050919050565b60015481565b60006005600080848152602001908152602001600020600201541015151561053257600080fd5b60019050919050565b6001600081548092919060010191905055506080604051908101604052806001548152602001828152602001610572600154610649565b8152602001600a81525060008060015481526020019081526020016000206000820151816000015560208201518160010190805190602001906105b6929190610683565b50604082015181600201556060820151816003015590505050565b600a6000808381526020019081526020016000206003016000828254019250508190555050565b6000808281526020019081526020016000206002016000815480929190600101919050555050565b600080828152602001908152602001600020600201600081548092919060019003919050555050565b6000600a60008084815260200190815260200160002060020181905550600080838152602001908152602001600020600201549050919050565b828054600181600116156101000203166002900490600052602060002090601f016020900481019282601f106106c457805160ff19168380011785556106f2565b828001600101855582156106f2579182015b828111156106f15782518255916020019190600101906106d6565b5b5090506106ff9190610703565b5090565b61072591905b80821115610721576000816000905550600101610709565b5090565b9056fea165627a7a72305820a42071ca22415fbc1f11da701730018c4873bf82c7749754e2c8618d3620ee130029",
  "source": "pragma solidity ^0.5.0;\n\ncontract Iov {\n\n    // Model a vehicle\n    struct Vehicle {\n        uint id;\n        string name;\n        uint trustIndex;\n        uint videoTime; // In seconds\n        //accessMode rights;\n    }\n\n    // Store vehicles\n    // Search for vehicle\n    mapping(uint => Vehicle) public vehicleArray;\n\n    // Keep track of vehicles count\n    uint public vehicleCount;\n\n    // Access modes for vehicle\n    struct accessMode{\n        bool canSend;\n        bool canRecv;\n    }\n    \n        \n    constructor() public{\n        addVehicle(\"Vehicle 1\");\n        addVehicle(\"Vehicle 2\");\n    }\n\n    function addVehicle(string memory _name) public {\n    \tvehicleCount++;\n    \tvehicleArray[vehicleCount] = Vehicle(vehicleCount, _name, computeVehicleTrustIndex(vehicleCount), 10);\n    }\n\n    // calculation of average vehicle trust index\n    function computeVehicleTrustIndex(uint _id) internal returns(uint){\n        vehicleArray[_id].trustIndex = 10;\n        return vehicleArray[_id].trustIndex;\n    }\n\n    // increment vehicle trust index\n    function incrementVehicleTrustIndex(uint _id) internal {\n        vehicleArray[_id].trustIndex++;\n    }\n    \n    // decrement vehicle trust index\n    function decrementVehicleTrustIndex(uint _id) internal {\n        vehicleArray[_id].trustIndex--;\n    }\n\n     // Make sure the sender can be trusted to share content\n    function canShareVideo(uint _id) public returns(bool) {\n        require(vehicleArray[_id].trustIndex >= 5);\n        return true;\n    }\n    \n    // Make sure the receiver has good behavior to receive content\n    function canReceiveVideo(uint _id) public returns(bool) {\n        require(vehicleArray[_id].trustIndex >= 5);\n        return true;    \n    }\n\n    function incrementVideoTime(uint _id) public {\n        vehicleArray[_id].videoTime += 10;\n    }\n\n    function decrementVideoTime(uint _id) public {\n        vehicleArray[_id].videoTime -= 10;\n    }\n    \n    // Feedback for vehicle behavior\n    function feedBack(uint _id, bool _bool) public {\n    \tif(_bool) {\n    \t\tincrementVehicleTrustIndex(_id);\n            incrementVideoTime(_id);\n\t\t\t// Call function payable to pay the publisher    \t\t\n    \t} else {\n    \t\tdecrementVehicleTrustIndex(_id);\n            decrementVideoTime(_id);\n    \t}\n    } \n   \n}",
  "sourcePath": "/Users/benlahcenayman/iov/blockchains8/contracts/Iov.sol",
  "compiler": {
    "name": "solc",
    "version": "0.5.0+commit.1d4f565a.Emscripten.clang"
  },
  "schemaVersion": "3.0.1",
  "updatedAt": "2019-02-12T13:00:43.995Z",
  "devdoc": {
    "methods": {}
  },
  "userdoc": {
    "methods": {}
  }
}