{
  "contractName": "Iov",
  "abi": [
    {
      "constant": true,
      "inputs": [
        {
          "name": "",
          "type": "uint256"
        }
      ],
      "name": "appArray",
      "outputs": [
        {
          "name": "id",
          "type": "uint256"
        },
        {
          "name": "name",
          "type": "string"
        },
        {
          "name": "content",
          "type": "string"
        },
        {
          "name": "author",
          "type": "string"
        },
        {
          "name": "public_key",
          "type": "string"
        },
        {
          "name": "trustIndex",
          "type": "uint256"
        }
      ],
      "payable": false,
      "stateMutability": "view",
      "type": "function",
      "signature": "0x39b40144"
    },
    {
      "inputs": [],
      "payable": false,
      "stateMutability": "nonpayable",
      "type": "constructor",
      "signature": "constructor"
    },
    {
      "constant": false,
      "inputs": [],
      "name": "decrementApplicationTrustIndex",
      "outputs": [],
      "payable": false,
      "stateMutability": "nonpayable",
      "type": "function",
      "signature": "0x6ad3f755"
    },
    {
      "constant": true,
      "inputs": [],
      "name": "getName",
      "outputs": [
        {
          "name": "",
          "type": "string"
        }
      ],
      "payable": false,
      "stateMutability": "view",
      "type": "function",
      "signature": "0x17d7de7c"
    },
    {
      "constant": true,
      "inputs": [],
      "name": "getContent",
      "outputs": [
        {
          "name": "",
          "type": "string"
        }
      ],
      "payable": false,
      "stateMutability": "view",
      "type": "function",
      "signature": "0x59016c79"
    },
    {
      "constant": true,
      "inputs": [],
      "name": "getTrustIndex",
      "outputs": [
        {
          "name": "",
          "type": "uint256"
        }
      ],
      "payable": false,
      "stateMutability": "view",
      "type": "function",
      "signature": "0xbfde0682"
    }
  ],
  "bytecode": "0x608060405234801561001057600080fd5b50336000806101000a81548173ffffffffffffffffffffffffffffffffffffffff021916908373ffffffffffffffffffffffffffffffffffffffff16021790555061086d806100606000396000f3fe60806040526004361061006d576000357c0100000000000000000000000000000000000000000000000000000000900463ffffffff16806317d7de7c1461007257806339b401441461010257806359016c79146103085780636ad3f75514610398578063bfde0682146103af575b600080fd5b34801561007e57600080fd5b506100876103da565b6040518080602001828103825283818151815260200191508051906020019080838360005b838110156100c75780820151818401526020810190506100ac565b50505050905090810190601f1680156100f45780820380516001836020036101000a031916815260200191505b509250505060405180910390f35b34801561010e57600080fd5b5061013b6004803603602081101561012557600080fd5b810190808035906020019092919050505061047f565b604051808781526020018060200180602001806020018060200186815260200185810385528a818151815260200191508051906020019080838360005b83811015610193578082015181840152602081019050610178565b50505050905090810190601f1680156101c05780820380516001836020036101000a031916815260200191505b50858103845289818151815260200191508051906020019080838360005b838110156101f95780820151818401526020810190506101de565b50505050905090810190601f1680156102265780820380516001836020036101000a031916815260200191505b50858103835288818151815260200191508051906020019080838360005b8381101561025f578082015181840152602081019050610244565b50505050905090810190601f16801561028c5780820380516001836020036101000a031916815260200191505b50858103825287818151815260200191508051906020019080838360005b838110156102c55780820151818401526020810190506102aa565b50505050905090810190601f1680156102f25780820380516001836020036101000a031916815260200191505b509a505050505050505050505060405180910390f35b34801561031457600080fd5b5061031d61071b565b6040518080602001828103825283818151815260200191508051906020019080838360005b8381101561035d578082015181840152602081019050610342565b50505050905090810190601f16801561038a5780820380516001836020036101000a031916815260200191505b509250505060405180910390f35b3480156103a457600080fd5b506103ad6107c0565b005b3480156103bb57600080fd5b506103c4610834565b6040518082815260200191505060405180910390f35b606060036001018054600181600116156101000203166002900480601f0160208091040260200160405190810160405280929190818152602001828054600181600116156101000203166002900480156104755780601f1061044a57610100808354040283529160200191610475565b820191906000526020600020905b81548152906001019060200180831161045857829003601f168201915b5050505050905090565b6001602052806000526040600020600091509050806000015490806001018054600181600116156101000203166002900480601f0160208091040260200160405190810160405280929190818152602001828054600181600116156101000203166002900480156105315780601f1061050657610100808354040283529160200191610531565b820191906000526020600020905b81548152906001019060200180831161051457829003601f168201915b505050505090806002018054600181600116156101000203166002900480601f0160208091040260200160405190810160405280929190818152602001828054600181600116156101000203166002900480156105cf5780601f106105a4576101008083540402835291602001916105cf565b820191906000526020600020905b8154815290600101906020018083116105b257829003601f168201915b505050505090806003018054600181600116156101000203166002900480601f01602080910402602001604051908101604052809291908181526020018280546001816001161561010002031660029004801561066d5780601f106106425761010080835404028352916020019161066d565b820191906000526020600020905b81548152906001019060200180831161065057829003601f168201915b505050505090806004018054600181600116156101000203166002900480601f01602080910402602001604051908101604052809291908181526020018280546001816001161561010002031660029004801561070b5780601f106106e05761010080835404028352916020019161070b565b820191906000526020600020905b8154815290600101906020018083116106ee57829003601f168201915b5050505050908060050154905086565b606060036002018054600181600116156101000203166002900480601f0160208091040260200160405190810160405280929190818152602001828054600181600116156101000203166002900480156107b65780601f1061078b576101008083540402835291602001916107b6565b820191906000526020600020905b81548152906001019060200180831161079957829003601f168201915b5050505050905090565b6000809054906101000a900473ffffffffffffffffffffffffffffffffffffffff1673ffffffffffffffffffffffffffffffffffffffff163373ffffffffffffffffffffffffffffffffffffffff161415151561081c57600080fd5b60036005016000815480929190600190039190505550565b600060036005015490509056fea165627a7a723058201523ccfd42e0dfcb3242357b7c5f6d6c2b1c3a8bd6f7fae141422f1ddf9a2bdd0029",
  "source": "pragma solidity ^0.5.0;\n\ncontract Iov {\n    \n    address owner;\n    mapping(uint => Application) public appArray;\n    uint applicationCount;\n    \n    // Application information (pki, content, etc)\n    struct Application {\n        uint id;\n        string name;\n        string content;\n        string author;\n        string public_key;\n        uint trustIndex;\n    }\n    \n    modifier onlyOthers {\n        require(msg.sender != owner);\n        _;\n    }\n    \n    // Blockchain node signer\n    /*struct Signature {\n        \n    }\n    \n    // Agreed terms (nodes, resources)\n    struct ResourcesContract {\n        \n    }*/\n    \n    Application application;\n    //Signature[] signatures;\n    \n    //ResourcesContract[] resourcesContracts;\n    \n    // Smart contract instanciation (Application)\n    constructor() public{\n        owner = msg.sender;\n    }\n\n    /*function addApplication(string memory _name, string memory _content, string memory _author, string memory _publicKey) private {\n        applicationCount++;\n        appArray[applicationCount] = Application(applicationCount, _name, _content, _author, _publicKey, computeApplicationTrustIndex());\n    }*/\n    \n    // Application certification (signature)\n    /*function signApplication(signer_node_infos_table) {\n        \n    }\n    \n    // low A-TI, dangerous behavior : revocation\n    function revokeApplication() {\n        \n    }\n    \n    // resources allocation (Resources contract)\n    function resourcesContractInit() {\n        \n    }\n    \n    // contract modification, free resources\n    function resourcesContractCancellation() {\n        \n    }*/\n    \n    // decrement A-TI\n    function decrementApplicationTrustIndex() public onlyOthers{\n        application.trustIndex--;\n    }\n    \n    // calculation of average A-TI\n    function computeApplicationTrustIndex() internal{\n        application.trustIndex = 10;\n    }\n    \n    function getName() view public returns(string memory) {\n        return application.name;\n    }\n\n    function getContent() view public returns(string memory) {\n        return application.content;\n    }\n    \n    function getTrustIndex() view public returns(uint) {\n        return application.trustIndex;\n    }\n}",
  "sourcePath": "/Users/mvirmont/Desktop/2A/S8/Projet S8/blockchains8/contracts/Iov.sol",
  "compiler": {
    "name": "solc",
    "version": "0.5.0+commit.1d4f565a.Emscripten.clang"
  },
  "schemaVersion": "3.0.1",
  "updatedAt": "2019-02-08T13:34:43.874Z",
  "devdoc": {
    "methods": {}
  },
  "userdoc": {
    "methods": {}
  }
}